:020000040800F2
:100000000050002075050008B9050008B905000872
:10001000B9050008B9050008B9050008000000008E
:10002000000000000000000000000000B90500080A
:10003000B905000800000000B9050008B90500086E
:10004000B9050008B9050008B9050008B905000898
:10005000B9050008B9050008B9050008B905000888
:10006000B9050008B9050008B9050008B905000878
:10007000B9050008B9050008B9050008B905000868
:10008000B9050008B9050008B9050008B905000858
:10009000B9050008B9050008B9050008B905000848
:1000A000B9050008B9050008B9050008B905000838
:1000B000B9050008B9050008B9050008B905000828
:1000C000B9050008B9050008B9050008B905000818
:1000D000B9050008B9050008B9050008B905000808
:1000E000B9050008B9050008B905000800000000BE
:1000F0000000000000000000000000000000000000
:0C01000000000000000000005FF808F1A3
:10010C00044B1A6822F470021A601A6842F48002D6
:10011C001A60704704100140104A136843F0010341
:10012C00136000234FF080421360243213600128C7
:10013C0007D941F63F720A4B1A6001380433186034
:10014C0006E040F21F32064B1A60092204331A6093
:10015C0001224FF080431A60704700BF1C10024010
:10016C0028000040044A136813F0010FFBD0002252
:10017C00014B1A60704700BF1000004008B5034BDC
:10018C001844142100F052F808BD00BFBD0500084A
:10019C0008B5034B1844142100F048F808BD00BF03
:1001AC00C805000838B5FFF7ABFF4FF4165000F048
:1001BC004FF84FF47A70FFF7AFFF094D00242B680E
:1001CC0013F4005F03D12046FFF7E2FF02E0204664
:1001DC00FFF7D4FF00F016F9FFF7C4FFEFE700BFFD
:1001EC0008100140704700BF014B1878704700BFE2
:1001FC00000000200C4B5A78C72A12D819469B785D
:10020C00194408710133DBB2C72B02D806498B7035
:10021C0002E00021044B99700132034B5A7000200C
:10022C0070470120704700BF0000002079B138B53D
:10023C0003460D46007848B15C1C1D4402E014F8DE
:10024C00010B18B1FFF7D6FFAC42F8D138BD70479F
:10025C00F8B53E4AD31CCB32002103F8011F934260
:10026C00FBD13A4A0023937082F8CC30537002F1E0
:10027C00CF0302F29712002103F8011F9342FBD126
:10028C00324A002482F8984182F899411470304B1C
:10029C00B3FBF0F32F4D296841F400312960043D84
:1002AC00296841F004012960043D296841F00101ED
:1002BC00296029490D6825F47F450D600D6845F4CA
:1002CC0094450D60254E0C213160254D2C60C027C6
:1002DC0004352F60234DB5FBF0F01B01C01A03430E
:1002EC002148036000F5DE30643042F2A003036065
:1002FC001E4D64232B601E4F1E4B1F6002F5CE7EDD
:10030C000433C3F800E0083341F2900EC3F800E068
:10031C00DFF86CE0CEF80040174C276002F5007750
:10032C00043427602C68C2F82042026842F00102B3
:10033C0002601A6842F001021A60336843F40053F9
:10034C0033600E48FFF772FFF8BD00BF00000020BD
:10035C0020A107001C100240000801400C44004082
:10036C001044004000127A00084400407000024023
:10037C00044400407400024088000240D405000888
:10038C008400024008B5FFF735FF08BD0C4B5A78C6
:10039C00A2B1194693F8CC30194408790133DBB279
:1003AC00C72B03D8064981F8CC3003E00021044B5D
:1003BC0083F8CC10013A024B5A70704700207047FA
:1003CC00000000200E4B1A78C72A16D8194693F84D
:1003DC009831194481F8D0000133DBB2C72B03D814
:1003EC00074981F8983103E00021054B83F89811F7
:1003FC000132034B1A70002070470120704700BF78
:10040C000000002070B584B001238DF80B30354B03
:10041C005B78002B29D0344B1B680393039B23BBC5
:10042C00324A136823F0010313602E4B5B78002BC8
:10043C0046D141E0FFF7AAFF05F8010F0134202C4B
:10044C0049D07378002BF5D1274B1C606CB1274B2E
:10045C0041F290021A602649264A1160043226495C
:10046C0011601A6842F001021A60244B1B68019358
:10047C001C4C642512E0D4F82032E31A93F80002E5
:10048C00FFF7A0FFD4F82032012B83BFD4F8203221
:10049C0003F1FF33C4F82032C4F82052D4F82022E0
:1004AC00019B9A421BD09DF80B300133DBB28DF8C7
:1004BC000B30002BDFD112E000220B4B1A60D4E77B
:1004CC00FFF764FF074D85F8000205F50075012460
:1004DC00A5F50076B5E72022034B1A60B7E704B008
:1004EC0070BD00BF0000002084000240800002406C
:1004FC0004440040880002400002002070000240CA
:10050C000D4B1A78AAB1194693F89931194491F800
:10051C00D0000133DBB2C72B03D8074981F89931DE
:10052C0003E00021044B83F89911013A024B1A7035
:10053C0070470020704700BF0000002008B5044B36
:10054C001B7813B1FFF7DCFF08BD002008BD00BF0E
:10055C0000000020670600080000002000000020BA
:10056C000000002024020020002103E00A4B5B580D
:10057C004350043109480A4B42189A42F6D3094AAF
:10058C0002E0002342F8043B074B9A42F9D3FFF7F1
:10059C0029FEFFF707FE70476706000800000020E1
:1005AC00000000200000002024020020FEE70000D4
:1005BC0050726573736564203D20000052656C6554
:1005CC0061736564000000000D0A4C696E6B204F6E
:0405DC004B0D0A00B9
:040000050800057575
:00000001FF
